:020000040800F2
:10000000FF4F0020DD02000825030008250300083B
:100010002503000825030008250300080000000050
:1000200000000000000000000000000025030008A0
:10003000250300080000000025030008270300082E
:1000400025030008250300082503000825030008F0
:1000500025030008250300082503000825030008E0
:1000600025030008250300082503000825030008D0
:1000700025030008250300082503000825030008C0
:1000800025030008250300082503000825030008B0
:1000900025030008250300082503000825030008A0
:1000A0002503000825030008250300082503000890
:1000B0002503000825030008250300082503000880
:1000C0002503000825030008250300082503000870
:1000D0002503000825030008250300082503000860
:1000E0002503000825030008250300080000000080
:1000F0000000000000000000000000000000000000
:0C01000000000000000000005FF808F1A3
:10010C000348044B834202D0034B03B1184770479A
:10011C001000002010000020000000000548064BD5
:10012C001B1AD90F01EBA301491002D0034B03B1E9
:10013C00184770471000002010000020000000003D
:10014C0010B5064C237843B9FFF7DAFF044B13B113
:10015C000448AFF300800123237010BD1000002071
:10016C0000000000AC09000808B5054B1BB105499F
:10017C000548AFF30080BDE80840FFF7CFBF00BFD4
:10018C000000000014000020AC09000880B582B00B
:10019C0000AF01211C4800F097FB0346FB7100F0F7
:1001AC0021F93860194B1B78FA799A4205D0174A15
:1001BC00FB791370164A3B681360154B1B683A6841
:1001CC00D31A182B01D8002319E0124B1B78FA799B
:1001DC009A4213D00F4AFB7913700E4B1B78002BED
:1001EC0003D10D4B01221A7008E00B4B1B78002B2E
:1001FC0004D0094B00221A70012300E0002318469A
:10020C000837BD4680BD00BF00080140000000203B
:10021C002C000020010000203000002080B586B0AA
:10022C0000AF07F1080300221A605A609A60DA6086
:10023C0000F07AF8204B9B691F4A43F0040393614A
:10024C001D4B9B6903F004037B607B681A4B9B6915
:10025C00194A43F010039361174B9B6903F0100389
:10026C003B603B6801224FF40051144800F043FB03
:10027C004FF40053BB600123FB6002237B6107F149
:10028C00080319460D4800F09BF90123BB600023BD
:10029C00FB6001233B6107F108031946084800F095
:1002AC008FF9FFF773FF0346002BFAD04FF4005180
:1002BC00024800F038FBF4E7001002400010014047
:1002CC000008014080B400AF00BFBD4680BC704741
:1002DC00FFF7F8FF0B480C490C4A002302E0D458F6
:1002EC00C4500433C4188C42F9D3094A094C002376
:1002FC0001E013600432A242FBD300F02DFBFFF7A8
:10030C008DFF70470000002010000020CC09000871
:10031C001000002038000020FEE780B500AF00F090
:10032C004FF800BF80BD000080B500AF084B1B68C4
:10033C00074A43F010031360032000F00DF900206E
:10034C0000F00EF800F006F80023184680BD00BF40
:10035C000020024080B400AF00BFBD4680BC704797
:10036C0080B582B000AF7860124B1A68124B1B78C4
:10037C0019464FF47A73B3FBF1F3B2FBF3F318465F
:10038C0000F011F90346002B01D001230EE07B682D
:10039C000F2B0AD8002279684FF0FF3000F0E7F8F5
:1003AC00064A7B681360002300E0012318460837D7
:1003BC00BD4680BD040000200C0000200800002079
:1003CC0080B400AF054B1B781A46054B1B681344D1
:1003DC00034A136000BFBD4680BC70470C00002070
:1003EC003400002080B400AF024B1B681846BD4699
:1003FC0080BC70473400002080B485B000AF7860BA
:10040C007B6803F00703FB600C4BDB68BB60BA68CE
:10041C004FF6FF031340BB60FB681A02BB68134323
:10042C0043F0BF6343F40033BB60044ABB68D36042
:10043C0000BF1437BD4680BC704700BF00ED00E024
:10044C0080B400AF044BDB681B0A03F007031846AB
:10045C00BD4680BC704700BF00ED00E080B483B0A7
:10046C0000AF03463960FB7197F90730002B0ADBAC
:10047C003B68DAB20C4997F907301201D2B20B443F
:10048C0083F800230AE03B68DAB20849FB7903F0F1
:10049C000F03043B1201D2B20B441A7600BF0C3787
:1004AC00BD4680BC704700BF00E100E000ED00E0FD
:1004BC0080B489B000AFF860B9607A60FB6803F073
:1004CC000703FB61FB69C3F10703042B28BF04235B
:1004DC00BB61FB690433062B02D9FB69033B00E0CB
:1004EC0000237B614FF0FF32BB6902FA03F3DA435E
:1004FC00BB681A407B699A404FF0FF317B6901FA67
:10050C0003F3D9437B680B40134318462437BD468D
:10051C0080BC704780B582B000AF78607B68013BCF
:10052C00B3F1807F01D301230FE00A4A7B68013BC2
:10053C0053600F214FF0FF30FFF790FF054B002267
:10054C009A60044B07221A60002318460837BD46F0
:10055C0080BD00BF10E000E080B582B000AF7860D5
:10056C007868FFF749FF00BF0837BD4680BD80B5EE
:10057C0086B000AF0346B9607A60FB7300237B61E1
:10058C00FFF75EFF78617A68B9687869FFF790FFCA
:10059C00024697F90F3011461846FFF75FFF00BF70
:1005AC001837BD4680BD80B582B000AF78607868E2
:1005BC00FFF7B0FF034618460837BD4680BD000064
:1005CC0080B48BB000AF7860396000237B6200236D
:1005DC003B6269E101227B6A02FA03F3FB613B682F
:1005EC001B68FA691340BB61BA69FB699A4240F017
:1005FC0058813B685B689A4A93425ED0984A934212
:10060C0075D8984A934258D0964A93426FD8964AD6
:10061C00934252D0944A934269D8944A93424CD014
:10062C00924A934263D8924A934246D0904A93425C
:10063C005DD8122B2AD8122B59D801A252F823F0CC
:10064C00C7060008A1060008B3060008F506000856
:10065C00FB060008FB060008FB060008FB0600086A
:10066C00FB060008FB060008FB060008FB0600085A
:10067C00FB060008FB060008FB060008FB0600084A
:10068C00FB060008A9060008BD060008794A93423B
:10069C0013D02CE03B68DB683B6229E03B68DB68ED
:1006AC0004333B6224E03B68DB6808333B621FE0A9
:1006BC003B68DB680C333B621AE03B689B68002BA1
:1006CC0002D104233B6213E03B689B68012B05D1EC
:1006DC0008233B627B68FA691A6109E008233B62D4
:1006EC007B68FA695A6103E000233B6200E000BFBB
:1006FC00BB69FF2B01D87B6801E07B6804337B610D
:10070C00BB69FF2B02D87B6A9B0002E07B6A083B2B
:10071C009B003B617B691A680F213B6901FA03F36B
:10072C00DB431A40396A3B6901FA03F31A437B69CC
:10073C001A603B685B6803F08053002B00F0B180BB
:10074C004D4B9B694C4A43F0010393614A4B9B69A7
:10075C0003F00103BB60BB68484A7B6A9B08023309
:10076C0052F82330FB607B6A03F003039B000F22DB
:10077C0002FA03F3DB43FA681340FB607B68404AE0
:10078C00934213D07B683F4A93420DD07B683E4A1C
:10079C00934207D07B683D4A934201D1032306E084
:1007AC00042304E0022302E0012300E000237A6A20
:1007BC0002F0030292009340FA681343FB602F4946
:1007CC007B6A9B080233FA6841F823203B685B681C
:1007DC0003F48013002B06D02D4B9A682C49BB696F
:1007EC0013438B6006E02A4B9A68BB69DB432849AC
:1007FC0013408B603B685B6803F40013002B06D03E
:10080C00234BDA682249BB691343CB6006E0204BCB
:10081C00DA68BB69DB431E491340CB603B685B68FD
:10082C0003F40033002B06D0194B5A681849BB69E6
:10083C0013434B6006E0164B5A68BB69DB43144903
:10084C0013404B603B685B6803F48033002B21D072
:10085C000F4B1A680E49BB6913430B6021E000BFB4
:10086C000000321000003110000022100000211096
:10087C000000121000001110001002400000014096
:10088C0000080140000C0140001001400014014020
:10089C00000401400B4B1A68BB69DB430949134048
:1008AC000B607B6A01337B623B681A687B6A22FAB5
:1008BC0003F3002B7FF48EAE00BF00BF2C37BD4678
:1008CC0080BC70470004014080B485B000AF7860F4
:1008DC000B467B807B689A687B881340002B02D088
:1008EC000123FB7301E00023FB73FB7B18461437D9
:1008FC00BD4680BC704780B483B000AF78600B46B7
:10090C007B8013467B707B78002B03D07A887B68C6
:10091C001A6103E07B881A047B681A6100BF0C37EC
:10092C00BD4680BC704780B485B000AF78600B4684
:10093C007B807B68DB68FB607A88FB6813401A0459
:10094C00FB68D9437B880B401A437B681A6100BF54
:10095C001437BD4680BC704770B500260C4D0D4B4E
:10096C005B1B9C10A64209D1002600F019F80A4D19
:10097C000A4B5B1B9C10A64205D170BD55F8043B7D
:10098C0098470136EEE755F8043B98470136F2E7F5
:10099C00C4090008C4090008C4090008C8090008F3
:1009AC00F8B500BFF8BC08BC9E467047F8B500BF50
:0809BC00F8BC08BC9E46704720
:0409C40075010008B1
:0409C8004D010008D5
:1009CC000101000000127A0010000000010000007C
:04000005080002DD10
:00000001FF
